:100000000C94F0020C9437030C9437030C943703D0
:100010000C9437030C9437030C9437030C94370378
:100020000C9437030C9437030C946F280C944129DB
:100030000C945F1D0C9437030C9437030C94370316
:100040000C9437030C9437030C9437030C94370348
:100050000C9437030C94C71D0C9437030C9437038E
:100060000C9437030C9437030C9437030C94370328
:100070000C9437030C9437030C9437030C94370318
:100080000C9437030C9437030C9437030C94370308
:100090000C9437030C9437030C9437030C943703F8
:1000A0000C9437030C9437030C943703540556050E
:1000B000610558055A055C055E0560056305650523
:1000C0006705720569056B056D056F05710574059A
:1000D0004713471379137913B713D71347154715E8
:1000E00019144715C614C61437154715471540157A
:1000F000D314D314D314D314D314D314D314D314C8
:10010000D314D314D314D314D314D314D314D314B7
:10011000E414F214F91400150A15D615D615E815CD
:10012000E815DF15E815E815E815D615D615E41518
:10013000E815E815E415AE29D529C72AD529C72A17
:10014000212A442AC72A9A2AA92A07634236B79B3A
:10015000D8A71A39685618AEBAAB558C1D3CB7CC27
:100160005763BD6DEDFD753EF6177231BF0000009F
:10017000803F05A84CCDB2D44EB93836A9020C50F8
:10018000B9918688083CA6AAAA2ABE000000803F32
:100190002B0014001A000800150017001C0018009E
:1001A0000C00120013002F00300031002A00E00084
:1001B00004001600070009000A000B000D000E00E5
:1001C0000F003300340027002D002E00E1001D0039
:1001D0001B00060019000500110010003600370052
:1001E0003800000024002500260000000000000068
:1001F000E1000151010002510151E5000000000041
:10020000000021002200230039002A00E200E30060
:100210002C002C002C002C00E700E6000000000061
:100220001E001F00200000003A003B003C003D0083
:100230003E003F00400041004200430044004500B2
:1002400000000000000000000000000000000000AE
:100250005000510052004F0000000000000000005C
:10026000000000000000000000000000000000008E
:10027000000000000000000000000000000000007E
:10028000000000000000000001000000000001006C
:10029000000000000000000000000000000000005E
:1002A000000000000000000000000000010000004D
:1002B000000000000000000000000000000000003E
:1002C000000000000000000000000000000000002E
:1002D000000000000000000000000000000000001E
:1002E000000000000000000000000000000000000E
:1002F00000000000000000000000000000000000FE
:1003000000000000000000000000000000000000ED
:1003100000000000000000000000000000000000DD
:1003200001000100000000000100000000000000CA
:1003300000000000000000000000000000000000BD
:1003400000000000000000000000000000000000AD
:10035000000000047F3F1F643214643214783C1E96
:100360001E140A056801F000B40078005A0000006D
:10037000000000010101010101010101020202026C
:10038000020202020203030303030303030404043F
:100390000404040505050505060606060607070705
:1003A00007080808080909090A0A0A0A0B0B0B0CB6
:1003B0000C0C0D0D0D0E0E0F0F0F10101111111250
:1003C0001213131414151516161717181819191ACD
:1003D0001A1B1C1C1D1D1E1F1F202021222223242E
:1003E000252526272728292A2B2B2C2D2E2F2F3069
:1003F000313233343536363738393A3B3C3D3E3F7F
:100400004041424344464748494A4B4C4D4F505166
:100410005253555657585A5B5C5E5F606263646620
:1004200067696A6C6D6E707173747678797B7C7EA7
:100430008081838486888A8B8D8F91929496989AF6
:100440009B9D9FA1A3A5A7A9ABADAFB1B3B5B7B90C
:10045000BBBDBFC1C4C6C8CACCCFD1D3D6D8DADCE5
:10046000DFE1E4E6E8EBEDF0F2F5F7FAFCFF040378
:10047000300000000A035800440037003500000037
:100480000C03780069007500640069000000040333
:10049000090409023B00020100A0FA09040000015E
:1004A000030101000921110100012240000705811B
:1004B0000308000A090401000103000000092111DA
:1004C00001000122C0000705820320000A1201106A
:1004D0000100000008CDCD75750100010203010582
:1004E000010902A10185020901A1000509190129DB
:1004F000051500250195057501810295017503819A
:10050000010501093009311581257F9502750881A2
:100510000609381581257F950175088106050C0AA5
:1005200038021581257F950175088106C0C0050137
:100530000980A10185031601002603001A81002A03
:100540008300751095018100C0050C0901A101858A
:1005500004160100269C021A01002A9C02751095BF
:10056000018100C005010906A1018505050719E003
:1005700029E7150025019508750181020508190173
:1005800029059505750191029501750391010507EE
:10059000190029EF1500250195F075018102C005AC
:1005A000010906A101050719E029E71500250195B4
:1005B0000875018102950175088101050819012955
:1005C00005950575019102950175039101050719BE
:1005D0000029FF150026FF00950675088100C00060
:1005E00011241FBECFEFDAE0DEBFCDBF04B603FE9D
:1005F00027C08091800290918102A0918202B091E7
:1006000083028730904BA740B04BD1F41092800208
:1006100010928102109282021092830214BE84B75B
:10062000877F84BF0FB6F894A89580916000886199
:1006300080936000109260000FBEE0E0F8E309953F
:1006400011E0A0E0B1E0E2E9FDE502C005900D9205
:10065000AE33B107D9F722E0AEE3B1E001C01D929D
:10066000A038B207E1F70E9491250C94C72E0C9494
:1006700000000C9482080C945F030C946B032A9A7C
:100680000895229A0C943F038F9A0895879A0C94A8
:1006900044038C980895849A0C9449038D9A089584
:1006A000859A0C944E030E9441030E9446030E94C7
:1006B0004B030E9450030C94810881E0089581E06F
:1006C00008950E94031C811102C00E947B1C0C949F
:1006D00053030C94390308950C943D0308950E942C
:1006E000C4150E946E032FEF84E39CE021508040EC
:1006F0009040E1F700C000000C94ED1DFF920F93B5
:100700001F93CF93DF938C01FC01C081D181809135
:100710008B01811113C08281882349F0CE010E9490
:10072000F61AF82E682FCE010E949B1A04C0CE0143
:100730000E94CA1AF82EBE018F2D04C0CE010E945D
:10074000F61ABE010E942406EC01B8010E943B0388
:10075000882309F46EC2CC3CFCE5DF0709F4DFC056
:10076000E8F5C43C9CE5D90709F4A3C0F8F4C53109
:10077000FCE5DF0778F4C2308CE5D80708F072C1D9
:10078000C1159CE5D90709F465C0C130DC4509F401
:1007900069C042C2C23CFCE5DF0709F476C008F03C
:1007A0007CC0C631DC4509F410C236C2F801828132
:1007B000C83CFCE5DF0709F49AC040F4C63CECE510
:1007C000DE0709F488C008F480C08BC0CA3C9CE5F1
:1007D000D90709F498C008F490C09BC0C43DFCE55B
:1007E000DF0709F414C1C0F4F8018281C03DFCE5C3
:1007F000DF0709F4C9C040F4CE3CECE5DE0709F49C
:100800009BC008F494C0ACC0C23D9CE5D90709F474
:10081000E5C008F4CFC0F6C0C83DFCE5DF0709F429
:10082000B9C150F4F8018281C63DFCE5DF0709F447
:100830006BC108F402C189C1CC3DECE5DE0709F4C7
:1008400008C1CD3DFCE5DF07C1F0CB3DDC4509F03B
:10085000E3C1F8C0F8018281882309F4EAC10E944B
:100860006F03E7C1F8018281882309F4E2C1809116
:100870002302816080932302DCC1F80182818823F6
:1008800009F4D7C10E947B1CD4C1F801828188235E
:1008900009F4CFC10E94A70CCCC1F8018281882342
:1008A00009F4C7C10E94C71B827261F00E94490C03
:1008B000C0C1F8018281882309F4BBC10E94C71B13
:1008C0008272A1F30E943F0CB4C1882309F4B1C124
:1008D0000E94510BAEC1882309F4ABC10E94690B81
:1008E000A8C1882309F4A5C10E94880BA2C188234E
:1008F00009F49FC10E94A30B9CC1882309F499C1EC
:100900000E94BD0B96C1882309F493C10E94D80BA5
:1009100090C1882309F48DC10E94240A8AC1F8017C
:100920008281882309F485C10E94390A82C1882303
:1009300009F47FC181E03BC0882309F47AC10E9499
:10094000160A623071058105910540F00E94160A71
:10095000653071058105910508F4B4CF82E027C0A8
:10096000882309F466C10E94160A66307105810564
:10097000910540F00E94160A6830710581059105C5
:1009800008F4A0CF86E013C0882309F452C10E9466
:10099000160A693071058105910540F00E94160A1A
:1009A0006E3071058105910508F48CCF89E00E94B5
:1009B0003C0C3FC1882309F43CC10E94160A6F30E9
:1009C00071058105910540F00E94160A6431710598
:1009D0008105910508F476CF8FE0E9CF882309F4EB
:1009E00028C10E94160A653171058105910540F004
:1009F0000E94160A673171058105910508F462CFDE
:100A000085E1D5CF882309F414C188E1D0CFF8015E
:100A10008281882309F40DC10E94160A693171058B
:100A20008105910540F00E94160A62327105810528
:100A3000910508F447CF89E1BACF882309F4F9C0BA
:100A400083E2B5CFF8018281882309F4F2C080E007
:100A500006C0F8018281882309F4EBC082E00E947D
:100A60003226E7C0F8018281882309F4DAC00E94A7
:100A7000031C811102C00E947B1C0E94201C90E07C
:100A80009093720280937102FE01E350FC45E231C3
:100A9000F10530F4EA5AFF4F809171020C946C2EEC
:100AA00080917102816027C0826025C0846023C06C
:100AB000806121C080621FC080641DC080681BC02F
:100AC0008460886018C08E7F16C08D7F14C08B7FB5
:100AD00012C08F7E10C08F7D0EC08F7B0CC08F77B1
:100AE0000AC08B7F877F07C087FB222720F991E010
:100AF000922790FB87F980937102809171020E9486
:100B0000241C0E94C41595C0882351F01092430103
:100B10000E94911D9093400180933F0182E020C08C
:100B20008091430181110FC080913F01909140015C
:100B30000E949D1D883C910530F486E20E9482113E
:100B400086E20E949B1282E022C0882361F010920C
:100B500044010E94911D909342018093410180E2E3
:100B60000E94031366C08091440181110FC08091DF
:100B70004101909142010E949D1D883C910530F4F5
:100B800087E20E94821187E20E949B1280E20E940B
:100B90000A134FC0F80182818111D9CF809144019D
:100BA0008111F4CF80914101909142010E949D1DDD
:100BB000883C910558F780E20E940A1388E20E945F
:100BC000821188E20E949B1234C00E94C71B282F0A
:100BD000F801828140910D0150910E01882379F036
:100BE0002A7A91E009F490E090933E01911102C0BD
:100BF00069E201C065E3CA010E94E21C0AC080915B
:100C00003E01811102C069E201C065E3CA010E9490
:100C1000ED1C0E94941B0DC081E0809343018093E2
:100C20004401C801DF91CF911F910F91FF900C9467
:100C30005D0380E0DF91CF911F910F91FF900895A8
:100C400080E090E0089508959FE0799FF0011124DD
:100C50009BE4899FE00DF11D1124E60FF11DEE0FBD
:100C6000FF1FE057FE4F859194910895880F991FBB
:100C7000FC01EE5AFC4F859194910895CF93DF9338
:100C80000E9424060E94E107EC01811520E59207ED
:100C9000F0F5811530E4930708F018C1883E9105FE
:100CA00000F5803E910508F088C1883A910570F4FE
:100CB000853A910508F09AC08130910509F47DC10B
:100CC00008F434C1049708F078C130C18D3B910518
:100CD00008F497C0803C910508F428C1805C910914
:100CE000E7C08115904258F4C11581E0D80708F09B
:100CF00064C1C03FD10508F419C1D0655EC1C115FA
:100D000090E3D90708F0D8C0CE019F70D1C08115FB
:100D100025E5920708F043C0811534E5930708F0F4
:100D2000ECC0811542E5940708F5C11581E5D807A7
:100D300008F0CFC02C2F237081E090E002C0880F14
:100D4000991F2A95E2F79C689E0174E036952795D5
:100D50007A95E1F72370922BCF70C695C69530E255
:100D6000C39FE0011124C82BD92B27C186958695F6
:100D70009E0123703327C115D34508F0AFC040E270
:100D8000849FC0011124C1E0D0E002C0CC0FDD1F60
:100D90002A95E2F78C2B9D2BEC01DC680EC18115A6
:100DA00029E5920778F4811538E5930708F0AAC081
:100DB0008115964508F0BAC0CF71DD27DC2FCC270E
:100DC000D062FBC0C1158AE5D80708F4A0C0CE01E7
:100DD00090568115904208F0A9C08D2F8F710E9406
:100DE0005E08DD27D0628F71D82BE7C0853A910568
:100DF00009F49FC0863A910509F09EC0C2E8D0E48C
:100E0000DCC0883A910509F49AC0893A910509F441
:100E100099C08A3A910509F498C08B3A910509F472
:100E200097C08C3A910509F496C08B3B910509F463
:100E300095C08C3B910509F494C08D3A910509F455
:100E400093C0803B910509F492C08E3A910509F454
:100E500091C08F3A910509F490C0813B910509F446
:100E60008FC0823B910509F48EC0833B910509F444
:100E70008DC0843B910509F48CC0853B910509F434
:100E80008BC0863B910509F48AC0873B910509F424
:100E900089C0883B910509F488C0893B910509F414
:100EA00087C08A3B910509F486C0C0E0D4E485C0C0
:100EB0000E943606EC0181C0CE019927D3FF03C002
:100EC000EC01D86C7AC0EC01D06C77C0DF70D06ACE
:100ED00074C0DC2FCC27C16FD06A6FC040E2849F02
:100EE000C0011124C1E0D0E002C0CC0FDD1F2A9563
:100EF000E2F7C82BD92BDA6860C0D82FCC27C46F93
:100F0000D06A5BC0D82FCC27C06FD06A56C08C2F58
:100F10008F70806E90E0906A24E0D695C7952A95F0
:100F2000E1F7CF709C013C2BE90147C0C0E0D0E065
:100F300044C0C1E8D0E441C0C3E8D0E43EC0C2EE42
:100F4000D4E43BC0C9EED4E438C0CAEED4E435C022
:100F5000C5EBD4E432C0C6EBD4E42FC0C3EBD4E479
:100F60002CC0C4EBD4E429C0C7EBD4E426C0CCEC3D
:100F7000D4E423C0CDECD4E420C0C3E8D5E41DC044
:100F8000CAE8D5E41AC0C2E9D5E417C0C4E9D5E47B
:100F900014C0C1E2D6E411C0C3E2D6E40EC0C4E27C
:100FA000D6E40BC0C5E2D6E408C0C6E2D6E405C06C
:100FB000C7E2D6E402C0CAE2D6E4CE01DF91CF9107
:100FC00008958238910549F1B0F48133910509F40F
:100FD00058C048F48932910509F44EC08A3291050F
:100FE00009F454C008958533910509F440C089334C
:100FF000910599F00895833E910529F138F4803EDA
:10100000910591F0823E9105A1F00895863E9105EB
:10101000F9F0873E910531F108952091710220FD8C
:101020003AC021FD38C008958091710280FD35C01D
:1010300032C08091710282FF32C08091710284FDC2
:1010400030C083EE39C08091710282FD28C0F5CF97
:101050008091710283FF27C08091710284FD21C0BD
:1010600087EE2AC08091710283FD1DC0F5CF80916B
:10107000710285FD1AC01BC08091710285FD17C0E9
:1010800014C08091710286FD14C015C08091710258
:1010900086FD11C00EC080EE0FC089E30DC082EE48
:1010A0000BC080E009C086EE07C089E205C085E379
:1010B00003C08AE201C081E390E00895909171023B
:1010C00092FF0DC0282F2871283019F4877F846083
:1010D00006C0282F2471243011F48B7F886093FF81
:1010E0000DC0282F2871283119F4877E846106C02D
:1010F000282F2471243111F48B7E886194FD877E22
:10110000089508950895EFE2F1E041E050E025E010
:101110002E0F9191A92FA295AF70B0E091963C91BE
:1011200091979F70BA0102C0660F771F9A95E2F7F8
:10113000CB018095832391968C932E13EACFA0E266
:10114000B1E041E050E02FE02A0F8D91E82FE295C9
:10115000EF70F0E031A18F70BA0102C0660F771F07
:101160008A95E2F7CB01962F9095932391A392A1B4
:10117000892B82A32A13E9CFEFE4F1E0A5E4B1E0E3
:10118000119211921D921D9271E0E935F707C1F796
:101190000C9461032F923F925F926F927F928F9295
:1011A0009F92AF92BF92CF92DF92EF92FF920F93F6
:1011B0001F93CF93DF932FE2C22E21E0D22E05E4BE
:1011C00011E0E801EE24E394F12C662463945E01BF
:1011D0008880998019821882D6018D916D01E82F3F
:1011E000E295EF70F0E021A18F70A70102C0440FDB
:1011F000551F8A95E2F7CA01242B21A322A1742E40
:101200007094272122A350EA5A95F1F790E2292EF3
:1012100091E0392E20E030E0D1017D911D01472F72
:1012200042954F7050E0DA0190965C904881598168
:101230007F70D70102C0AA0FBB1F7A95E2F7BD01EC
:10124000652141F4B701022E02C0660F771F0A9490
:10125000E2F702C060E070E0462B572B59834883C9
:101260002F5F3F4F2F303105B9F691A1792271A23E
:1012700092A1892B82A32296F50180819181881603
:10128000990641F0609259010E94911D90935B0173
:1012900080935A01F1E0CF34DF0709F098CF8091B5
:1012A00059018823B1F080915A0190915B010E940D
:1012B0009D1D069770F0EFE4F1E0D8018D919D91AE
:1012C0008D0181939193B1E00F341B07B1F7109218
:1012D00059010E94690381E0DF91CF911F910F9125
:1012E000FF90EF90DF90CF90BF90AF909F908F9046
:1012F0007F906F905F903F902F900895E82FF0E0DF
:10130000EE0FFF1FE15BFE4F8081918108950895EC
:10131000EF92FF920F931F93CF93DF93E901662320
:1013200009F44BC0242F30E0EFEFF0E0E61BF109A9
:10133000B901E69F9001E79F300DF69F300D112413
:10134000232F8B01031B11095CE3E52EF12CB70160
:101350000E94442EFB01BC01069FC001079F900D17
:10136000169F900D1124B7010E94442EE230F10522
:10137000B1F040F4309779F0319711F5832F242F95
:10138000461B21C0E430F105A1F068F03597C1F4A7
:10139000842F861B18C0832F262F230F14C0862F5F
:1013A000830FE42F03C0E42FE61B842F432F2E2F3F
:1013B0000AC0842F462F430F06C0842F242F03C05A
:1013C00080E020E040E0E42FF0E0E259FC4F44915F
:1013D000E22FF0E0E259FC4F9491E82FF0E0E2595F
:1013E000FC4FE49149839883EA83DF91CF911F9169
:1013F0000F91FF90EF90089588E090E00C94872E75
:10140000AB01BC0188E090E00C94A52EE4E5F2E08D
:1014100083E08083109255028FEF8283838314824E
:1014200060817181828193810C94000A60915402E1
:1014300060FF06C066956F7370E080E090E00895ED
:1014400060E070E0CB0108958091580290E0019631
:101450008430910514F083E090E08093580260910D
:1014600054027091550280915602909157020C944B
:10147000000A8091580290E0019797FF02C080E037
:1014800090E08430910514F083E090E0809358025E
:1014900060915402709155028091560290915702CA
:1014A0000C94000A8091540280FF06C066E070E050
:1014B00089E592E00C94121080E090E0FC01E75A7C
:1014C000FD4F118210821282039682319105B1F78D
:1014D000EDCF9091540290FF0FC020E030E0F90171
:1014E000E75AFD4F8183608342832D5F3F4F223156
:1014F0003105A9F70C94520A0895CF93DF9300D0D9
:101500001F92CDB7DEB72091540220FF0AC09E0182
:101510002F5F3F4F0E9488094B8169818A810E9419
:10152000690A0F900F900F90DF91CF9108955F920D
:101530006F927F928F929F92AF92BF92CF92DF92E3
:10154000EF92FF920F931F93CF93DF9300D01F92E0
:10155000CDB7DEB78C01E62EF42E522E80915402C8
:1015600080FF89C0982F9E77923061F49E012F5F93
:101570003F4FC8010E9488094B8169818A810E947E
:10158000690A59C0E82FE695EF739EE39E0F9F739B
:10159000943018F4F09057024EC09AE39E0F9F7358
:1015A000993068F4881F8827881F90915502292F49
:1015B000220F022F082B97FB112710F93CC087E25E
:1015C0008E0F8F738A30B8F5F0E07997E0FD02C096
:1015D00021E001C02FEFEE7FEC59FC4F85919491F3
:1015E00066E070E00E94442E26034001279F900C85
:1015F0001124580188E9A81A8EEFB80A89E5C82E87
:1016000082E0D82E98E6692E77247394C501B30141
:101610000E94442E96014F2D6E2D0E948809A80C21
:10162000B91C83E0C80ED11C8BE6C81682E0D80630
:1016300069F70E94520A8091540200FB87F9809357
:101640005402902F9695809155028078892B10FB3B
:1016500087F980935502E0925602F0925702552086
:1016600051F0609154027091550280915602909110
:1016700057020E94000A0F900F900F90DF91CF91B8
:101680001F910F91FF90EF90DF90CF90BF90AF90A0
:101690009F908F907F906F905F90089521E00C94C1
:1016A000970AE4E5F2E02081221F2227221F3091D1
:1016B0005502432F440F842F822B37FB992790F933
:1016C0000C9668E671E00E94582E438162810C946A
:1016D0004E0B20915402221F2227221F30915502C7
:1016E000432F440F842F822B37FB992790F98C309E
:1016F00091051CF4845A9E4F01C00C9768E671E076
:101700000E94582E40915702609156020C944E0B45
:1017100060915602862F90E0873E910514F4675E33
:1017200001C06FEF80915402881F8827881F909115
:101730005502292F220F97FB992790F940915702C4
:10174000822B0C944E0B60915602862F90E04997A5
:1017500014F0695101C060E080915402881F88270D
:10176000881F90915502292F220F97FB992790F9F6
:1017700040915702822B0C944E0B40915702842FBC
:1017800090E0843F910514F4445F01C04FEF8091D5
:101790005402881F8827881F90915502292F220FF5
:1017A00097FB992790F960915602822B0C944E0B6F
:1017B00040915702842F90E00C9714F04C5001C0D8
:1017C00040E080915402881F8827881F909155021D
:1017D000292F220F97FB992790F960915602822BAF
:1017E0000C944E0B20E00C94970ACF9390915402E6
:1017F00090FF40C09178811102C0926007C085328D
:1018000010F0986403C08F73880F982B9093540244
:10181000662351F0609154027091550280915602F6
:10182000909157020E94000AC09154026C2F669555
:101830006F7370E04BE050E082E091E00E94722E06
:10184000892B19F01092790103C081E0809379010E
:10185000CC1FCC27CC1F90915502892F880F97FB66
:10186000992790F940915702609156028C2BCF91A5
:101870000C94F20BCF91089561E00C94F50B8091DC
:10188000540286958F738F5F853208F081E00C9447
:101890003C0C8091540286958F73815009F484E248
:1018A0000C943C0CE4E5F2E08081816080838695B5
:1018B0008F730C943C0C60E00C94F50B8091230228
:1018C0008160809323020E94031C811104C00E9446
:1018D0007B1C0E94060A0E94FC09609354027093CC
:1018E000550280935602909357026E7761F40E94DE
:1018F000060A0E94FC09609354027093550280937B
:1019000056029093570281E08093790180915402AE
:1019100080FF04C086958F730C945B0C0895E4E5FA
:10192000F2E080818E7F80836081718182819381EA
:101930000E94000A109279012FEF80E792E0215077
:1019400080409040E1F700C000000C94520A809162
:10195000540280FD0C948F0C0C94520CCF93C82F22
:1019600080917701909178010E949D1DEC2FF0E00D
:10197000E05AFC4FE491F0E08E179F0708F443C053
:101980000E94911D90937801809377016091760178
:1019900070E080E090E00E94452C20E030E04FE7CE
:1019A00053E40E94682B2BED3FE049E450E40E9491
:1019B0006E2D0E94DB2D0E94E22B2BE43AE34EE2D7
:1019C0005FE30E94FB2A20EF3BEF48ED52E40E94C8
:1019D0006E2D0E94142C462F80915402881F882758
:1019E000881F90915502292F220F97FB992790F974
:1019F00060915602822B0E947D0A8091760190E0D0
:101A0000019680937601CF910895CF93C82F80914E
:101A10007401909175010E949D1DEC2FF0E0E35A36
:101A2000FC4FE491F0E08E179F07E8F00E94911DB3
:101A30009093750180937401409157026091560212
:101A400080917201909173010E947D0A80917201D0
:101A500090917301019668E671E00E94442E909384
:101A6000730180937201CF910895CF92DF92FF921C
:101A70000F931F93CF93DF93F82E80917001909175
:101A800071010E949D1DEF2DE695F0E0E65AFC4F96
:101A9000E491F0E08E179F07E8F10E94911D90936A
:101AA00071018093700109E512E0C0E0D0E088E6A2
:101AB000C82EDD24D39480916E0190916F018C0F1C
:101AC0009D1FB6010E94442E9801409157026091DB
:101AD00056020E948809EC960D5F1F4FC83681E0C0
:101AE000D80749F70E94520A20916E0130916F0188
:101AF000F0FE0AC0C9010196BE010E94442E9093D7
:101B00006F0180936E0106C02150310930936F013F
:101B100020936E01DF91CF911F910F91FF90DF9085
:101B2000CF900895AF92BF92CF92DF92EF92FF9243
:101B30000F931F93CF93DF93C82F80FF02C01FEF37
:101B400001C011E080916C0190916D010E949D1D7A
:101B5000C695EC2FF0E0E95AFC4FE491F0E08E17C7
:101B60009F0708F466C00E94911D90936D018093B9
:101B70006C0129E5C22E22E0D22E3BE5E32E32E0B5
:101B8000F32EC0E0D0E0F70131971082F601108209
:101B9000F701108294E0A92EB12C00E080916B0136
:101BA000800F87FD8A5F082E000C990BC817D90794
:101BB000E9F4809157028A9DA0018B9D500D11245C
:101BC000559547955595479580915402881F8827CC
:101BD000881F90915502592F550F97FB992790F91F
:101BE000960160915602852B0E948809010FF1E051
:101BF000AF1AB10899F6219683E0C80ED11CE3E034
:101C0000EE0EF11CC630D10509F0BDCF0E94520A7C
:101C100080916B01113031F4811102C085E007C061
:101C2000815005C090E00196BE010E94582E80931D
:101C30006B01DF91CF911F910F91FF90EF90DF909B
:101C4000CF90BF90AF9008950F931F93CF93DF93E2
:101C5000C82F8091690190916A010E949D1DEC2F0F
:101C6000F0E0EC5AFC4FE491F0E08E179F0708F487
:101C700066C00E94911D90936A018093690180E083
:101C800090E0FC01E75AFD4F118210821282039608
:101C900082319105B1F7C0E0D0E006E010E0CE015E
:101CA000B8010E94582E40916801042E000C550B7B
:101CB000FC01EE0FFF1FC417D5070CF14091010185
:101CC000042E000C550B4C175D07CCF08E0F9F1F98
:101CD0009C01275A3D4F80915402881F8827881FF6
:101CE00090915502592F550F97FB992790F94091E4
:101CF000570260915602852B0E94880907C0E80FA1
:101D0000F91FE75AFD4F1182108212822196C630C8
:101D1000D10529F60E94520A809100019091680134
:101D2000980F9093680120910101280F20930101E1
:101D3000121614F495301CF0819580930001DF9108
:101D4000CF911F910F910895EF92FF920F931F93E0
:101D5000CF93DF9380916601909167010E949D1D52
:101D6000883E9340D0F10E94911D9093670180932B
:101D70006601C0916401D09165012196C170DD2793
:101D8000D0936501C093640189E5E82E82E0F82EC6
:101D900010E008E7812F8695FE01E80FF11DCF01C5
:101DA0008170992797014091570260915602FC017A
:101DB0000E9FC0010F9F900D11240E9488091F5F84
:101DC000F3E0EF0EF11C163029F7DF91CF911F9150
:101DD0000F91FF90EF900C94520ADF91CF911F91D9
:101DE0000F91FF90EF900895CF93DF9300D01F9253
:101DF000CDB7DEB780916201909163010E949D1D75
:101E0000E2E5F3E02591349182179307C0F18091C8
:101E1000610181110CC09E012F5F3F4F4FEF6FEFAB
:101E200080E090E00E9488098A81809361010E948D
:101E3000911D9093630180936201809160018130D4
:101E400051F028F0823061F4409161010AC0809124
:101E5000610140E007C06091610140E080E003C0A3
:101E600040E080E060E00E94690A8091600190E0BB
:101E7000019663E070E00E94582E809360010F90FD
:101E80000F900F90DF91CF9108950F931F93CF93F1
:101E9000DF9380915E0190915F010E949D1D843FC0
:101EA000914008F448C00E94911D90935F01809377
:101EB0005E01C9E5D2E000E010E020915C013091C4
:101EC0005D018091540290915502033011051CF47C
:101ED000232B79F002C0232B61F4881F8827881FE9
:101EE000592F550F97FB992790F99E014091570262
:101EF0000AC0881F8827881F592F550F97FB9927DD
:101F000090F99E0140E060915602852B0E9488095D
:101F10000F5F1F4F23960630110579F60E94520A73
:101F200080915C0190915D01019681709927909359
:101F30005D0180935C01DF91CF911F910F91089516
:101F4000809179018823D9F190915402892F869547
:101F50008F732EE3280F2F73243018F482500C94C3
:101F6000AE0C2AE3280F2F73233018F486500C94FC
:101F7000050D27E3280F2F73263018F489500C9491
:101F8000350D21E3280F2F73263018F48F500C9451
:101F9000920D2BE2280F2F73233018F485510C94E7
:101FA000240E892F8E77803311F40C94A40E86347E
:101FB00011F40C94F40E883411F40C94450F089528
:101FC00021B3342F3095232331B3432B3FB7F894FB
:101FD000FC01680F791FE617F70789F0819198E0F7
:101FE00041BB000000C087FF21BB880F000000C07C
:101FF00000C000C021BB00C09A9591F7ECCF3FBF55
:10200000089520B3242B20BB9B01220F331F620FA6
:10201000731F0E94E00F87EC90E00197F1F700C07A
:102020000000089540E40C94011090937F01809388
:102030007E010895E0917E01F0917F01309721F0BB
:102040000190F081E02D099480E00895E0917E01F7
:10205000F0917F01309799F020911F01222359F0D0
:102060002091710227FF07C0DC012C9111962C935F
:10207000119725E02C930280F381E02D09940895B7
:10208000E0917E01F0917F01309739F022E0DC0190
:102090002C930480F581E02D0994089520917C0112
:1020A00030917D018217930771F090937D018093A9
:1020B0007C01E0917E01F0917F01309721F0068054
:1020C000F781E02D0994089520917A0130917B01E8
:1020D0008217930771F090937B0180937A01E091CE
:1020E0007E01F0917F01309721F00084F185E02D91
:1020F0000994089585B7806885BF85B7806885BFD6
:10210000089508950E947A100C94811081E008953A
:102110000E94881D0E9483080E945D1E0C945E0C24
:102120004F925F927F928F929F92AF92BF92CF9287
:10213000DF92EF92FF920F931F93CF93DF93CDB770
:10214000DEB72A970FB6F894DEBF0FBECDBF0E9450
:10215000CA080E948610811111C08FEF89838A837B
:102160001B820E94911D8160782F9D838C83498101
:102170005A816B818D810E944E1157C091E8C92E02
:1021800091E0D92E00E010E0AA24A394B12C702E87
:10219000802F0E947E094C01F601419051906F0101
:1021A000482659264114510431F40F5F1F4F053062
:1021B000110569F7D2CF8091230281FD0E94870922
:1021C00020E030E07501022E02C0EE0CFF1C0A94E4
:1021D000E2F7C70184219521892B09F12E837F82A3
:1021E0008E209F2091E0892809F490E098870E9432
:1021F000911D8160782F9A8789874E815F816885DC
:102200008A850E944E11000F111FF801EF57FE4FF3
:1022100080819181E826F926F182E08206C02F5F55
:102220003F4F2F30310571F6C0CF0E940021109131
:1022300080010E941A101817D9F00E941A1080937A
:1022400080012A960FB6F894DEBF0FBECDBFDF9196
:10225000CF911F910F91FF90EF90DF90CF90BF90A3
:10226000AF909F908F907F905F904F900C946C03F5
:102270002A960FB6F894DEBF0FBECDBFDF91CF9187
:102280001F910F91FF90EF90DF90CF90BF90AF9094
:102290009F908F907F905F904F900895CF93DF93A2
:1022A000CDB7DEB72B970FB6F894DEBF0FBECDBF0C
:1022B0004F83588769877A878B87DE01119686E07E
:1022C000FD0111928A95E9F785E0FE0137960190AC
:1022D0000D928A95E1F749815A816B817C818D81CC
:1022E0009E810E946B182B960FB6F894DEBF0FBE2E
:1022F000CDBFDF91CF910895FC01808191810E9433
:10230000351B0895CF93DF931F92CDB7DEB7882397
:1023100009F40DC1682F8238C1F40E941A1081FDA2
:1023200006C169E380910D0190910E010E94E21CAB
:102330000E94941B2FEF81EE94E02150804090404A
:10234000E1F700C0000069E319C0833811F50E946D
:102350001A1080FDECC063E580910D0190910E0193
:102360000E94E21C0E94941B2FEF81EE94E021500A
:1023700080409040E1F700C0000063E580910D01CE
:1023800090910E010E94ED1C0F90DF91CF910C9463
:10239000941B8438C1F40E941A1082FDC8C067E4FF
:1023A00080910D0190910E010E94E21C0E94941BED
:1023B0002FEF81EE94E0215080409040E1F700C083
:1023C000000067E4DBCF8CEF860F813A70F4862F34
:1023D00069830E943C2369818111A9C080910D010C
:1023E00090910E010E94E21CCFCF80E2860F8830D0
:1023F00048F4677081E001C0880F6A95EAF70E948F
:10240000CA1BC2CF8BE5860F833088F4653A29F06A
:10241000663A31F083E890E005C081E890E002C0C0
:1024200082E890E00F90DF91CF910C944E1088E5F8
:10243000860F853108F071C0683A61F1693A69F137
:102440006A3A71F16B3A79F16C3A81F16B3B89F13F
:102450006C3B91F16D3A99F1603BA1F16E3AA9F1B3
:102460006F3AB1F1613BB9F1623BC1F1633BC9F134
:10247000643BD1F1653BD9F1663BE1F1673BE9F1A2
:10248000683BF1F1693BF9F16A3B09F43FC080E038
:1024900090E03EC082EE90E03BC089EE90E038C014
:1024A0008AEE90E035C085EB90E032C086EB90E09C
:1024B0002FC083EB90E02CC084EB90E029C087EB29
:1024C00090E026C08CEC90E023C08DEC90E020C022
:1024D00083E891E01DC08AE891E01AC082E991E0AA
:1024E00017C084E991E014C081E292E011C083E258
:1024F00092E00EC084E292E00BC085E292E008C058
:1025000086E292E005C087E292E002C08AE292E0B1
:102510000F90DF91CF910C946410603F40F0862FB4
:102520000E9408200F90DF91CF910C94F5200F901E
:10253000DF91CF910895882309F464C0823879F43B
:102540000E941A1081FF5EC069E380910D01909195
:102550000E010E94E21C0E94941B69E310C08338A4
:10256000B1F40E941A1080FF4DC063E580910D0107
:1025700090910E010E94E21C0E94941B63E58091E1
:102580000D0190910E010E94ED1C0C94941B843857
:1025900079F40E941A1082FF35C067E480910D0122
:1025A00090910E010E94E21C0E94941B67E4E7CF09
:1025B0009CEF980F913A10F4682FE1CF90E2980FBA
:1025C000983050F4877091E001C0990F8A95EAF72E
:1025D000892F0E94D01BD9CF9BE5980F933020F410
:1025E00080E090E00C944E1098E5980F953120F41F
:1025F00080E090E00C946410803F20F00E947020F6
:102600000C94F5200895882321F00E94CA1B0C9495
:10261000941B0895882321F00E94D01B0C94941BD6
:1026200008954F925F926F927F92BF92CF92DF9206
:10263000EF92FF920F931F93CF93DF937C01D62FDE
:10264000C72FFC01058102950F70128111110E94A4
:10265000E71B0E948D1B882379F0112369F080E22B
:102660008D0F883048F082E00E94761B0E948D1BFF
:1026700091E0B82EB92601C0B12CCC2EC2948FE0C7
:10268000C822D12CF601E859FF4F0C946C2E8C2FE8
:10269000807FCF70882311F0C295C07F112399F0FD
:1026A000CC2309F4CFC180E28D0F883010F0D11116
:1026B00004C08C2F0E94CA1B03C08C2F0E94DA1BFF
:1026C0000E94941BBFC18D2F0E949B12CC2309F442
:1026D000DEC180E28D0F883010F0D11104C08C2F44
:1026E0000E94D01B03C08C2F0E94E01B0E94941BF1
:1026F000CEC18C2F807FCF70803211F0C295C07F09
:10270000DD2319F0D130C9F022C0112371F000236C
:1027100041F0013031F40E94001C8C2B0E94FA1B06
:10272000B6C10E94001C8C2B46C1002319F0013059
:1027300009F4ADC10E94FD1B18C0112321F0063021
:1027400008F0A5C10EC0053008F0A1C10EC01123CC
:1027500051F0002331F0F701858180FF73C18F7044
:1027600085838C2F28C101117EC18C2F2AC18C2F0B
:1027700086958695837090E0009719F0019761F037
:1027800086C1112321F08D2F9C2F937002C080E011
:1027900090E00E944E108BC1112321F08D2F9C2FB1
:1027A000937002C080E090E00E94641080C1112309
:1027B000F9F0D53F51F0D63F71F0D43FA9F48091A4
:1027C0006B0290916C0281600BC080916B029091C2
:1027D0006C02826005C080916B0290916C028460F3
:1027E00090936C0280936B028D2F0E9408201EC074
:1027F000D53F51F0D63F71F0D43FA9F480916B02E0
:1028000090916C028E7F0BC080916B0290916C0254
:102810008D7F05C080916B0290916C028B7F9093AD
:102820006C0280936B028D2F0E9470200E94F52015
:102830003EC18C2F837009F050C0111134C18D2F0F
:10284000829586958770880F880F9D2F9F70492EDF
:10285000512C612C712C082E04C0440C551C661C94
:10286000771C0A94D2F7D4FF14C00FE010E020E0E8
:1028700030E0B901A80104C0440F551F661F771F3F
:102880008A95D2F7CB01BA016095709580959095A5
:1028900003C060E070E0CB01C695C695C370D0E080
:1028A000C230D10561F0C330D10581F064297529AA
:1028B00086299729219771F00E94B019F4C06429E4
:1028C0007529862997290E94C219EDC00E94B01966
:1028D000C301B2010E949E19E6C0112319F08C2F8A
:1028E000817001C08695882309F4DDC08D2F829503
:1028F00086958770880F880F9D2F9F70492E512CC9
:10290000612C712C082E04C0440C551C661C771CCD
:102910000A94D2F7D4FF14C00FE010E020E030E0BA
:10292000B901A80104C0440F551F661F771F8A957F
:10293000D2F7CB01BA01609570958095909503C050
:1029400060E070E0CB01C695C695C3704C2F50E097
:102950004230510569F04330510589F064297529E9
:10296000862997294130510571F00E94761A9BC043
:1029700064297529862997290E94881A94C00E9483
:10298000761AC301B2010E94641A8DC08D2F90E0A7
:10299000FC01E05EF109E531F10508F04FC0E858AF
:1029A000FF4F0C946C2EDF708C2F8F71112331F040
:1029B0000E94FD198D2F0E94031369C00E941E1AE8
:1029C0008D2F0E940A1363C0112341F0053008F0D7
:1029D0005EC08C2F8F710E94431A59C0063008F0D8
:1029E00056C0F7CF112339F08C2F8F710E94FD193B
:1029F0004EC01123C9F38C2F8F710E941E1A47C03D
:102A0000112329F08C2F8F710E94E81940C00E9479
:102A1000E3193DC0112349F0CF718C2F0E94FD199D
:102A200063E08C2F0E946D1B32C081E00E94761BF8
:102A3000023068F182E00E94761B29C0112331F038
:102A4000002391F28D2F0E94821121C0002399F260
:102A5000D93349F45FEF67EE73E051506040704046
:102A6000E1F700C000008D2F0E949B1210C04C2F78
:102A70004F706D2FC7010E9420060E940F1917C0CA
:102A80004C2F4F706D2FC7010E94230610C088E0A5
:102A9000C816D10441F05CF0EAE0CE1AD108F2E0A9
:102AA000CF16D10420F40E941A100E946C03BB20A0
:102AB000F1F00E94691B80FD1AC0F70112820E948A
:102AC000631B0E94FD19C7010E9485150E94631BAC
:102AD000DF91CF911F910F91FF90EF90DF90CF90FA
:102AE000BF907F906F905F904F900C941E1ADF9173
:102AF000CF911F910F91FF90EF90DF90CF90BF90FB
:102B00007F906F905F904F9008950F931F93CF9396
:102B1000DF93EC01888199812B813C81232BB9F0D3
:102B20009F3F11F48F3F99F0CE010E947E038823CE
:102B300071F0688179818A810E94401B8C010E941A
:102B40009A1A0E949B19B801CE010E941113DF91BD
:102B5000CF911F910F9108950E94E71B0E94F71BD0
:102B600080910D0190910E010E94F81C0E94941B0F
:102B70000E949B210E94F52080E090E00E944E1070
:102B800080E090E00C9464100E94D71B0C94AC156C
:102B90000E94351BE92FE295EF70F0E03297EE309E
:102BA000F105B0F4E357FF4F0C946C2E803F91F089
:102BB00018F4803E68F40EC0843F51F40BC0803E90
:102BC00048F0813F29F406C093FB882780F90895D7
:102BD00080E0089581E00895CF93DF9300D000D086
:102BE0001F92CDB7DEB70F900F900F900F900F9000
:102BF000DF91CF910895CF93DF9300D000D000D024
:102C0000CDB7DEB726960FB6F894DEBF0FBECDBFA8
:102C1000DF91CF9108951F93CF93DF93C0918C01E3
:102C200016E080918D01C81799F0D0E01C9FF0014B
:102C30001D9FF00D1124E257FE4F408151816281AA
:102C40007381848195810E94FB152196C770E9CF1D
:102C5000DF91CF911F9108954091BE015091BF0126
:102C60006091C0017091C1018091C2019091C30136
:102C70000C94FB158091C30182958F7009F054C0AC
:102C80008091C001882309F44FC080918C01A091EC
:102C90008D016091BE017091BF014091C1015091C1
:102CA000C201B6E08A1709F43FC090E04115510512
:102CB000C1F17F3F11F46F3FA1F1B89FF001B99FBF
:102CC000F00D1124E257FE4F218172132AC020819A
:102CD000621327C02281211124C02381348124174B
:102CE000350710F421503109241B350B283C3105E0
:102CF000C0F42091C3012F7020612093C30126E00E
:102D0000289FF001299FF00D1124ED56FE4F808180
:102D10008F70806180838EEB91E00E9485150C940A
:102D20000B1601968770BECF0895CF92DF92EF9277
:102D3000FF920F931F93CF93DF93CDB7DEB76297C8
:102D40000FB6F894DEBF0FBECDBF8C0185E0F80151
:102D5000DE011D9601900D928A95E1F7D8014C9104
:102D600011965C91119712966C9112971396CD90D3
:102D7000DC9014973091BE017091BF018091C10128
:102D80009091C201009709F46BC17F3F19F43F3F56
:102D900009F466C1E090C001EE2009F4C0C02091A2
:102DA000C301C816D90628F0F601E81BF90BCF01BC
:102DB00004C0809590958C0D9D1DFF24F394883C54
:102DC000910578F0F12C207F09F0C6C07C2DD98ABE
:102DD000C88A89890E94EC158EEB91E00E948515C6
:102DE000B1C0822F807F09F046C0751314C0341320
:102DF00012C0611110C02F7020612093C3010E9486
:102E00002C168EEB91E00E9485158091C301D801AC
:102E100015968C932EC0CD2819F15F3F11F44F3FCA
:102E2000F9F0F62E61111CC080918C0120918D016A
:102E300036E0821709F45AC090E0389FF001399FBC
:102E4000F00D1124E257FE4F7181571306C07081B7
:102E5000471303C07281711103C001968770E9CFD7
:102E6000F62E662309F427C18091C3018160809307
:102E7000C301F12C20C1751308C0341306C06111C1
:102E800004C08091C301D801C3C04D875E878D8582
:102E90009E856A8B0E94C8156A898823E1F16623A2
:102EA000D1F12091C301822F82958F7090E002971B
:102EB00074F08091BE019091BF0198878F8319862D
:102EC000DB86CA862C87CE0107960E94851586E090
:102ED000F801AEEBB1E001900D928A95E1F70E9406
:102EE0003A160E942C16FF24F394E5C04D875E87A6
:102EF0008D859E850E94351B292F22952F7030E0ED
:102F0000223031050CF0CBC09F7009F0C5C0805E47
:102F1000883008F4D0C0C8010E948515E4CFC816D7
:102F2000D90608F453C0F601E81BF90BCF01883C21
:102F3000910508F450C0F12C7C2DD98AC88A898962
:102F40000E94EC15EEEBF1E086E0DF011D928A9520
:102F5000E9F70E942C16AFC0751314C0341312C0C9
:102F6000611110C08091C301F8018583C8010E94DE
:102F7000851586E0EEEBF1E0DF011D928A95E9F719
:102F8000FE2C99C04D875E878D859E856A8B0E9439
:102F9000C8156A89882309F4BECF662309F4BBCF1C
:102FA0002091C301822F82958F7090E002970CF4DC
:102FB0008ECF8091BE019091BF019A8389831B823D
:102FC000DD82CC822E83CE0101967FCF80959095B5
:102FD0008C0D9D1DACCFF62E662309F49CCF751386
:102FE0002EC034132CC02091C30120FD1FC0822F9E
:102FF00082958F70D9F0D80115962C9315978F3044
:1030000049F08F5F982F9295907F822F8F70892B38
:1030100015968C93C8010E94851586E0F801AEEBE9
:10302000B1E001900D928A95E1F793CF86E0F80127
:10303000AEEBB1E001900D928A95E1F73CC04D876F
:103040005E878D859E850E94C815811140CF809135
:10305000C30181608093C301C8010E9485152BC004
:10306000662309F458CF4D875E878D859E850E9423
:10307000C815F82E882309F44ECF86E0F801AEEB90
:10308000B1E001900D928A95E1F78EEB91E00E94FC
:103090007C110E943A165DCF811139CF0CC02430CB
:1030A00031050CF038CF9F7009F431CFF8019581CC
:1030B000907F09F02CCF8F2D62960FB6F894DEBF6B
:1030C0000FBECDBFDF91CF911F910F91FF90EF9079
:1030D000DF90CF9008951F93CF93DF93CDB7DEB7E6
:1030E0002C970FB6F894DEBF0FBECDBF4F83588725
:1030F00069877A878B879C87CE0107960E949516F1
:10310000882369F08F8198852A853B85232BF1F1EF
:103110009F3F09F063C08F3F09F060C037C086E071
:10312000FE013796DE01119601900D928A95E1F726
:103130006F817885EA85FB85309741F17F3F11F4F7
:103140006F3F21F120918D0130E0C9010196877018
:10315000992740918C0150E08417950709F447C0E6
:1031600069837A83FD83EC8396E0929FD001939FDD
:10317000B00D1124A257BE4FFE01319601900D9261
:103180009A95E1F780938D010E940B1616E08091CD
:103190008C0190918D018917C1F1189FC0011124F4
:1031A00082579E4F0E949516882379F1E0918C01F9
:1031B0001E9FF0011124E257FE4F40815181628130
:1031C0007381848195810E94FB1580918C0190E030
:1031D00001968770992780938C01D9CF4F815885AC
:1031E00069857A858B859C850E94FB15CFCF0E94CF
:1031F000C41510928D0110928C01EEEBF1E086E087
:10320000DF011D928A95E9F7C1CF2C960FB6F8948D
:10321000DEBF0FBECDBFDF91CF911F910895EF921A
:10322000FF920F931F93CF93DF938C01892B09F4A7
:103230006CC0F12CEE24E394E8012196F80184910E
:10324000843740F4843008F051C0813081F08230FE
:1032500019F15BC0853709F444C0A8F19CE7980FC9
:10326000903708F052C08F770E949B1241C00E5FCA
:103270001F4FFE01C49180E28C0F883048F4C77064
:103280008E2D01C0880FCA95EAF70E94EA1B14C070
:103290008C2F0E9482112DC00E5F1F4FFE01C49122
:1032A00080E28C0F883058F4C7708E2D01C0880FD3
:1032B000CA95EAF70E94F01B0E94941B1AC08C2F3B
:1032C0000E949B1216C00E5F1F4FFE01C491CC23BB
:1032D00081F08FE99FE00197F1F700C00000C15035
:1032E000F6CF0E5F1F4FFE01F49003C00E948211C3
:1032F0008E018F2D882309F49FCFEFE9FFE03197EE
:10330000F1F700C000008150F5CFDF91CF911F9100
:103310000F91FF90EF90089508950C948C190E94DE
:103320008D196093FA017093FB018093FC019093D7
:10333000FD010C94AC1508950C948F190F931F93F5
:103340000091FA011091FB012091FC013091FD01E7
:10335000602B712B822B932B1F910F910C948F1943
:103360000F931F930091FA011091FB012091FC0132
:103370003091FD0160237123822393231F910F91CC
:103380000C948F190F931F930091FA011091FB0178
:103390002091FC013091FD0160277127822793273E
:1033A0001F910F910C948F1908950C94D4190E94B9
:1033B000D5196093F6017093F7018093F80190930B
:1033C000F9010C94AC1560E070E0CB010C94D719B6
:1033D0000F931F9341E050E060E070E08A019B0191
:1033E00004C0000F111F221F331F8A95D2F7C90195
:1033F000B8011F910F910C94D7190F931F9341E0BF
:1034000050E060E070E004C0440F551F661F771F56
:103410008A95D2F78091F6019091F701A091F80179
:10342000B091F9018A019B01082B192B2A2B3B2B08
:10343000C901B8011F910F910C94D7190F931F93D5
:1034400041E050E060E070E004C0440F551F661F8B
:10345000771F8A95D2F74095509560957095809129
:10346000F6019091F701A091F801B091F9018A015C
:103470009B01082319232A233B23C901B8011F916B
:103480000F910C94D7190F931F9341E050E060E027
:1034900070E004C0440F551F661F771F8A95D2F74E
:1034A0008091F6019091F701A091F801B091F90196
:1034B0008A019B01082719272A273B27C901B80140
:1034C0001F910F910C94D7190F931F930091F60140
:1034D0001091F7012091F8013091F901602B712BC7
:1034E000822B932B1F910F910C94D7190F931F933D
:1034F0000091F6011091F7012091F8013091F90146
:1035000060237123822393231F910F910C94D71969
:103510000F931F930091F6011091F7012091F8018C
:103520003091F90160277127822793271F910F910E
:103530000C94D71908952FE0929F800D1124A82F85
:10354000A695A695A695877051E001C0550F8A955E
:10355000EAF785E0A89FD001112420E030E070E078
:10356000F901EA0FFB1FEC53FE4F4081CB01022E05
:1035700002C0969587950A94E2F781709927819504
:1035800084278523842780832F5F3F4F2530310593
:1035900039F708952FE0929F800D1124682F6695CA
:1035A00066956695982F977085E0689FB001112405
:1035B00040E050E080E0FA01E60FF71FEC53FE4FC9
:1035C000208130E0092E02C0369527950A94E2F753
:1035D00021703327042E01C0220F0A94EAF7822BB0
:1035E0004F5F5F4F4530510531F70895CF92DF921D
:1035F000EF92FF920F931F93CF93DF938C01C090B4
:10360000FA01D090FB01E090FC01F090FD01809167
:10361000F6019091F701A091F801B091F901C82A43
:10362000D92AEA2AFB2ACFE1D0E0D701C6010C2E25
:1036300004C0B695A795979587950A94D2F780FF11
:1036400006C0B8018C2F0E943E06019721F42197F5
:1036500060F780E001C08C2FDF91CF911F910F9117
:10366000FF90EF90DF90CF900895CF93DF93EC0120
:103670000E94F61ABE010E943E06DF91CF91089586
:103680001F93CF93DF93EB0190918B01992321F04E
:10369000CB010E94351B13C0882349F0CB010E9447
:1036A000F61A182F682FCE010E949B1A04C0CB0176
:1036B0000E94CA1A182FBE01812F0E943E06DF9178
:1036C000CF911F9108958091FE01859585958595EF
:1036D00008958091FE018770089598E0899F900178
:1036E0001124262B2093FE010C94FD192091FE013C
:1036F000809582238093FE01982F977069F430E0C3
:10370000482F082E000C550B2417350729F08595F6
:10371000859585950C941E1A08959091FE019770D9
:1037200081E009F480E00895E0910D01F0910E012F
:10373000809122028083E0910D01F0910E01908131
:1037400080912102892B8083E0910D01F0910E017F
:10375000908180912002892B80838091FF018823B2
:1037600081F0E0910D01F0910E019081892B808311
:1037700080910D0190910E010E947D1C811110928B
:10378000FF0180910D0190910E010C942610809103
:103790002202089590912202892B8093220208959B
:1037A000809590912202892380932202089510929D
:1037B0002202089590912102892B8093210208957D
:1037C000809590912102892380932102089510927F
:1037D0002102089590912002892B80932002089560
:1037E0008095909120028923809320020895109261
:1037F000200208958093FF0108951092FF0108951B
:103800008091FF01089580E090E00E948D2E21E0DC
:103810008D3E9E4F09F020E0822F089582E090E0D7
:103820000C947F2E682F82E090E00C94932E83E01E
:1038300090E00C947F2E682F83E090E00C94932E00
:1038400084E090E00C947F2E682F84E090E00C944C
:10385000932EAB01BC018FE090E00C94A52EAB0140
:10386000BC0183E190E00C94A52E60E070E0CB01F8
:103870000C942F1C60E070E0CB010E94291C0C947A
:10388000351C6DEE7EEF80E090E00E94B12E60E08E
:1038900082E090E00E94932E60E083E090E00E943E
:1038A000932E1092FA011092FB011092FC011092DB
:1038B000FD0160E084E090E00E94932E60E085E0EE
:1038C00090E00E94932E60E086E090E00E94932EAC
:1038D0006FEF87E090E00E94932E40E050E0BA0145
:1038E00088E090E00E94A52E60E08DE090E00E94CC
:1038F000932E0C943A1C0C94411CFC01329680913E
:103900001F01882331F08091710287FF02C09EE180
:1039100001C096E080E0915028F021912223D9F354
:103920008F5FF9CF08959C01FC0132969FEF80E0F4
:103930004191461789F09F3F19F4411101C0982F1A
:103940008F5F8630A9F79F3F39F0F901E90FF11D2C
:1039500097FDFA95628308950895FC0132960896C2
:103960002081261301C010823196E817F907C1F7AC
:103970000895262F2695269526952E3168F4FC016C
:10398000E20FF11D677021E030E001C0220F6A955F
:10399000EAF78281282B22830895262F26952695E3
:1039A00026952E3170F4FC01E20FF11D677021E0C5
:1039B00030E001C0220F6A95EAF720958281282322
:1039C0002283089520911F01222329F02091710262
:1039D00027FD0C94B91C0C94931C20911F012223E9
:1039E00029F02091710227FD0C94CD1C0C94AD1C84
:1039F00020911F01FC013296222331F08091710247
:103A000087FF02C08EE101C086E0DF011D928A952A
:103A1000E9F7089508950C940A1D0E940B1D8091EA
:103A20007702843049F11092240220E488E190E08A
:103A30000FB6F894A895809360000FBE20936000A5
:103A400080E00E946C030E940B1D83B7817F84601D
:103A500083BF83B7816083BF7894889583B78E7F57
:103A600083BF0FB6F894A895809160008861809319
:103A70006000109260000FBE089508950895CF93DE
:103A80000E943D1D0E94CA080E943E1DC0E08C2F6E
:103A90000E947E09892B29F4CF5FC530C1F780E0F1
:103AA00001C081E0CF91089508950C94541D0E94A7
:103AB000C4150E941A100E946C030C94551D1F928D
:103AC0000F920FB60F9211248F939F93AF93BF93D2
:103AD00080912402811113C080916D0290916E0239
:103AE000A0916F02B09170024196A11DB11D80930B
:103AF0006D0290936E02A0936F02B0937002BF911B
:103B0000AF919F918F910F900FBE0F901F901895BE
:103B100082E084BD93E095BD9AEF97BD80936E00DF
:103B200008952FB7F89480916D0290916E02A09144
:103B30006F02B09170022FBF0895CF92DF92EF9283
:103B4000FF920F931F932FB7F89440916D025091FD
:103B50006E0260916F02709170022FBF6A017B014B
:103B6000EE24FF248C0120E030E0C016D106E206EE
:103B7000F30610F4415051099A01281B390BC90171
:103B80001F910F91FF90EF90DF90CF900895789460
:103B90001F920F920FB60F9211248F939F93AF93A2
:103BA000BF9380916D0290916E02A0916F02B091CF
:103BB00070020196A11DB11D80936D0290936E025B
:103BC000A0936F02B0937002BF91AF919F918F91BC
:103BD0000F900FBE0F901F90189581E08093E0002A
:103BE00080E28093D8001092C9008FE19EE4019793
:103BF000F1F700C0000087E090EBDC0180938002C9
:103C000090938102A0938202B09383029CE088E1AA
:103C10000FB6F894A895809360000FBE9093600053
:103C2000FFCFAF92BF92CF92DF92EF92FF920F93AE
:103C30001F93CF93C0E0CC24C394D12CE82EF12C59
:103C40008C2F0E947E095C0100E010E09601002E9E
:103C500002C0220F331F0A94E2F72A213B21232BB3
:103C600031F40F5F1F4F0F30110581F70AC0602F2D
:103C70007C2F80E00E942406E816F90691F781E087
:103C800004C0CF5FC530E1F680E0CF911F910F9166
:103C9000FF90EF90DF90CF90BF90AF900895CF93BB
:103CA000C82F8CE20E94111E882321F08C2FCF9107
:103CB0000C94111E80E0CF910895CF930E94031CB5
:103CC000811102C00E947B1CC5E6C15049F00E94D0
:103CD000CA088FE39CE90197F1F700C00000F5CF17
:103CE00089E20E944F1E81110FC18AE20E944F1E7D
:103CF00081110E947B1C85E00E944F1E81110E9451
:103D0000ED1D0E940E1C8093230287E00E944F1E2F
:103D10008823A9F18BE10E944F1E882351F08091E6
:103D2000230281FB222720F991E0922790FB81F961
:103D30000EC08EE00E944F1E882361F08091230206
:103D400082FB222720F991E0922790FB82F9809351
:103D5000230215C080E10E944F1E90912302882308
:103D600041F093FB222720F981E0822780FB93F921
:103D700004C0892F809580FB90F990932302809155
:103D800023020E94121C0E94201C90E09093720259
:103D90008093710280EE0E944F1E882341F0809133
:103DA0007102982F909590FB80F98093710289E3BE
:103DB0000E944F1E882359F08091710281FB2227B7
:103DC00020F991E0922790FB81F98093710282EEB5
:103DD0000E944F1E882359F08091710282FB222796
:103DE00020F991E0922790FB82F98093710286EE90
:103DF0000E944F1E882359F08091710283FB222775
:103E000020F991E0922790FB83F98093710283EE71
:103E10000E944F1E882359F08091710284FB222753
:103E200020F991E0922790FB84F98093710285E359
:103E30000E944F1E882359F08091710285FB222732
:103E400020F991E0922790FB85F98093710281E33C
:103E50000E944F1E882359F08091710286FB222711
:103E600020F991E0922790FB86F98093710281E11D
:103E70000E944F1E882359F08091710287FB2227F0
:103E800020F991E0922790FB87F98093710280914D
:103E900071020E94241C87E20E944F1EC82F8EE1EF
:103EA0000E944F1E8111C2608FE10E944F1E81113E
:103EB000C46080E20E944F1E8111C86081E20E94AE
:103EC0004F1E8111C06182E20E944F1E8111C062AB
:103ED00083E20E944F1E8111C06484E20E944F1E43
:103EE000882311F0C06802C0CC2329F08C2F0E94D7
:103EF0001B1C6C2F03C00E94171C682F70E080E011
:103F000090E0CF910C949C19CF9108958091270255
:103F100080FF0BC06091120185E0689FB001112401
:103F200075956795759567952BC081FF09C0609160
:103F3000120185E0689FB00111247595679520C036
:103F400082FF07C06091120185E0689FB0011124D3
:103F500017C0909128029923D1F060911101961712
:103F600088F72091120185E0289F90011124929FEB
:103F7000A001939F500D112470E0CA010E94582E99
:103F80006038710540F46115710539F002C065E0D3
:103F900070E0862F08958FE7089581E0089580915D
:103FA000270280FF08C06091100170E07595679549
:103FB0007595679521C081FF06C06091100170E082
:103FC0007595679519C082FF04C06091100170E07B
:103FD00010C0909128029923C1F060910F019617AB
:103FE000A0F780911001899FC001112470E00E9408
:103FF000582E6038710528F46115710521F0862F5F
:1040000008958FE7089581E0089561E070E0F4CFAE
:10401000803F21F40E94861F819504C0813F29F4CE
:104020000E94861F80932C020895823F21F40E94F3
:10403000861F819504C0833F29F40E94861F8093C8
:104040002B020895893F19F40E94CF1F05C08A3FB3
:1040500031F40E94CF1F819580932D0208958B3FEC
:1040600021F40E94CF1F819504C08C3F29F40E9447
:10407000CF1F80932E020895843F21F480912A025D
:10408000816017C0853F21F480912A02826011C0AF
:10409000863F21F480912A0284600BC0873F21F47F
:1040A00080912A02886005C0883F31F480912A02FD
:1040B000806180932A0208958D3F21F48091270228
:1040C00081600BC08E3F21F480912702826005C081
:1040D0008F3F29F4809127028460809327020895FE
:1040E000803F39F480912C0287FF6CC010922C0223
:1040F00069C0813F29F480912C021816BCF362C07C
:1041000090912B02823F29F497FF5CC010922B0202
:1041100059C0833F19F41916CCF354C0893F41F4B8
:1041200080912D0218160CF04DC010922D024AC03D
:104130008A3F29F480912D0287FF44C0F6CF8B3F40
:1041400039F480912E0287FF3DC010922E023AC0B2
:104150008C3F29F480912E021816BCF333C0843FA3
:1041600021F480912A028E7F17C0853F21F480912F
:104170002A028D7F11C0863F21F480912A028B7F15
:104180000BC0873F21F480912A02877F05C0883FBA
:1041900031F480912A028F7E80932A0213C08D3FD2
:1041A00021F4809127028E7F0BC08E3F21F48091F5
:1041B00027028D7F05C08F3F29F4809127028B7FD6
:1041C0008093270280912B0281110EC080912C02D6
:1041D00081110AC080912D02811106C080912E02AA
:1041E000811102C010922802089589E292E00E9493
:1041F00040100E94911D90932602809325020895FD
:104200001F93CF93DF9380912502909126020E9405
:104210009D1DAC0190912802992321F0209113015A
:1042200030E006C0209114018AE0289F90011124FB
:104230004217530708F47BC080912B02C0912C02D7
:10424000D0912D0210912E02811107C0C1116BC0B7
:10425000D11169C0111167C06AC09F3F19F09F5FFB
:1042600090932802181624F40E94861F80932B0234
:1042700080912B0287FF05C00E94861F8195809345
:104280002B021C1624F40E94861F80932C0280911E
:104290002C0287FF05C00E94861F819580932C0207
:1042A00030912B023323E1F020912C022223C1F024
:1042B00045EB3403C0011124892F990F990B009706
:1042C00009F481E080932B0235EB2303C001112414
:1042D000892F990F990B009709F481E080932C02A4
:1042E0001D1624F40E94CF1F80932D0280912D0271
:1042F00087FF05C00E94CF1F819580932D02111664
:1043000024F40E94CF1F80932E0280912E0287FFFB
:1043100005C00E94CF1F819580932E02DF91CF911F
:104320001F910C94F5209F3F09F099CFA1CFDF9109
:10433000CF911F910895E9E2F2E086E0DF011D923E
:104340008A95E9F710922802109227020895833087
:1043500081F128F4813059F08230D1F00895853010
:1043600009F449C0B8F1863009F456C00895809127
:104370001401262F30E0280F311D2F3F310524F482
:10438000680F6093140108958FEF809314010895CE
:1043900080911301262F30E0280F311D2F3F31056A
:1043A00024F4680F6093130108958FEF8093130135
:1043B000089580911201262F30E0280F311D2F3FE4
:1043C000310524F4680F6093120108958FEF8093F4
:1043D0001201089580911101262F30E0280F311D20
:1043E0002F3F310524F4680F6093110108958FEF7A
:1043F00080931101089580911001262F30E0280F3D
:10440000311D2F3F310524F4680F6093100108958A
:104410008FEF80931001089580910F01262F30E0D7
:10442000280F311D2F3F310524F4680F60930F01D1
:1044300008958FEF80930F010895833011F128F4D0
:10444000813049F0823091F00895853081F120F17A
:104450008630C1F1089580911401681720F4861BFD
:10446000809314010895109214010895809113010E
:10447000681720F4861B809313010895109213018E
:10448000089580911201681720F4861B8093120111
:10449000089510921201089580911101681720F477
:1044A000861B809311010895109211010895809147
:1044B0001001681720F4861B809310010895109254
:1044C0001001089580910F01681720F4861B8093D6
:1044D0000F01089510920F0108950F931F938B31D0
:1044E00009F471C0A0F58E3009F480C0C0F48730A3
:1044F00009F45BC068F4863009F0ABC080912302F8
:10450000817F8E7F8093230281E080933002A2C05E
:10451000883009F49CC08B3009F499C09AC081316D
:1045200009F46EC068F4803109F093C080912302D1
:1045300083FB222720F991E0922790FB83F94CC05E
:10454000863109F484C0893109F481C082C0853381
:1045500009F475C068F4873209F471C028F48E310B
:1045600008F477C08D515BC0893209F468C071C00E
:10457000833438F48A3308F051C0883309F467C0B3
:1045800068C0833409F45BC0883409F062C00E94BB
:10459000C4150FEF13ED20E3015010402040E1F768
:1045A00000C000000E94ED1D52C080912302982F90
:1045B0009095917090FB80F980932302911147C0F0
:1045C000897F877F10C08091230281FB222720F9F9
:1045D00091E0922790FB81F9809323029923B9F10E
:1045E0008091230281608093230231C08091230255
:1045F00082FB222720F991E0922790FB82F9ECCFF1
:104600000E94C4158091710287FB222720F991E056
:10461000922790FB87F98093710219C0895341E07A
:1046200050E060E070E08A019B0104C0000F111FA0
:10463000221F331F8A95D2F7C901B80104C061E077
:1046400070E080E090E00E949C190E94C41581E017
:1046500001C080E01F910F91089580E0089580E0EF
:1046600008958E518A3030F4E82FF0E0EC5CFE4F74
:104670008081089580E00895CF93C82F8091300203
:10468000813069F018F08230C9F183C0E0910D01EA
:10469000F0910E018081823209F07DC007C0E09167
:1046A0000D01F0910E018081823261F48C2F0E9405
:1046B0002D23811104C08C2F0E946D221DC081E02A
:1046C00090E01AC08C2F0E942F23811114C0C43196
:1046D00079F048F4CB3079F0C03109F060C082E065
:1046E0008093300208C0C93219F0C83321F057C096
:1046F0001092300254C081E0817053C0C93289F1F8
:1047000018F5C43171F1B0F4C73009F046C08EE13C
:104710008093140182E3809313018AE08093120155
:1047200084E18093110188E08093100188E28093F6
:104730000F0133C082EE8C0F863078F58C2F0E94EB
:10474000312380932F0229C0CE34E9F020F4CB34FA
:1047500021F56AE013C0C13579F0C235F1F461E0AA
:104760000DC080912F02882319F010922F0215C0DE
:1047700081E08093300215C061E006C080912F0275
:104780000E94A7210AC06AE080912F020E941D2288
:1047900004C01092300280E004C081E002C080E0DA
:1047A000ABCFCF9108958091510208950F931F933D
:1047B000CF93DF9300D01F92CDB7DEB78C010E945C
:1047C0004226823011F0843021F584E089831B83F6
:1047D0000A8382E08093E9008FEF9091E800815096
:1047E00095FD06C095ED9A95F1F700008111F5CF82
:1047F0008091E80085FF0DC040E050E063E070E08C
:10480000CE0101960E945F268091E8008E7780930A
:10481000E8000F900F900F90DF91CF911F910F91B3
:104820000895CF93DF9300D01F92CDB7DEB72091CC
:104830007702243031F523E02983805891099B8346
:104840008A8382E08093E9008FEF9091E8008150A5
:1048500095FD06C095ED9A95F1F700008111F5CF11
:104860008091E80085FF0DC040E050E063E070E01B
:10487000CE0101960E945F268091E8008E7780939A
:10488000E8000F900F900F90DF91CF910895CF9394
:10489000DF93EC010E944226823011F08430F9F45B
:1048A00082E08093E9009FEF8091E800915085FDC0
:1048B00006C085ED8A95F1F700009111F5CF809142
:1048C000E80085FF0CC040E050E066E070E0CE01FB
:1048D0000E945F268091E8008E778093E800DF9148
:1048E000CF910895CF93DF93EC010E94422682304E
:1048F00011F08430D9F580911F01882339F080911F
:10490000710287FF03C060E282E002C068E081E0DC
:104910008093E9008FEF9091E800815095FD06C0EB
:1049200095ED9A95F1F700008111F5CF8091E8009F
:1049300085FF1CC080911F01811105C040E050E03F
:1049400068E070E003C070E040E050E0CE010E94FB
:104950005F268091E8008E778093E80080E2FE0178
:10496000A1E3B2E001900D928A95E1F7DF91CF913A
:10497000089580917602811109C00E94F4270E9457
:1049800051288091E20084608093E20008951092A3
:1049900076020895089508950C94571D42E061EC45
:1049A00081E00E946E2742E261EC82E00C946E2767
:1049B00080917902833009F45CC030F4813071F069
:1049C000823009F495C008958A3009F481C08B3093
:1049D00009F467C0893009F0A3C020C08091780233
:1049E000813A09F09DC08091E800877F8093E800BC
:1049F00080917C0290917D02892B21F460E281E319
:104A000092E003C060E080E090E070E00E94AA269F
:104A10008091E8008B778093E80008958091780278
:104A2000813209F07DC080917C0290917D020297D5
:104A300008F076C08091E800877F8093E80080913D
:104A4000E80082FD05C0809177028111F8CF68C02F
:104A500080911F01882329F08091F1008B7F8130A4
:104A600021F48091F100809351028091E8008B77CE
:104A700053C080917802813A09F052C080917C0243
:104A800090917D02892B09F04BC08091E800877FCF
:104A90008093E8008091E80080FFFCCF80911F01A7
:104AA00036C0809178028132D9F580917C02909154
:104AB0007D02892BA9F58091E800877F8093E8002B
:104AC0000E94A32780917A0280931F010C94C41541
:104AD00080917802813221F58091E800877F809370
:104AE000E8000E94A32780917B02809352020895E0
:104AF00080917802813AA1F48091E800877F8093C9
:104B0000E8008091E80080FFFCCF80915202809302
:104B1000F1008091E8008E778093E8000C94A32741
:104B2000089584B7877F84BF0FB6F894A8958091C5
:104B30006000886180936000109260000FBE80E882
:104B400080936100109261000E9482100E94F427FD
:104B50000E9451288091E20084608093E200789462
:104B60000E94E02A0E94881085E191E00E941510C1
:104B700080917702853069F40E940D1D8091750245
:104B80008823B1F30E943F1D882391F30E94492698
:104B9000EFCF0E9490100E94A00FEACF0C94D02576
:104BA000292F332723303105C9F064F42130310532
:104BB00081F02230310509F04CC08BE390E022E90E
:104BC00034E04BC02132310521F12232310589F127
:104BD00040C082E190E02DEC34E03FC09927813065
:104BE000910571F02CF4892BA1F5EEE8F4E00DC0ED
:104BF0008230910541F0039761F5EEE6F4E005C0DF
:104C0000E0E8F4E002C0E4E7F4E0849190E09F0182
:104C100024C06115710541F061307105D1F489E05E
:104C200090E02DEB34E019C089E090E024EA34E014
:104C300014C06115710541F06130710551F480ECCB
:104C400090E02FED34E009C080E490E02FE935E0FA
:104C500004C080E090E020E030E0FA01318320835E
:104C600008950895CF93C82F0E943126C093530210
:104C7000CF91089580917702843011F081E00895FA
:104C800082E0089580915302811102C00C943A266B
:104C9000089580E189BD82E189BD09B400FEFDCFA0
:104CA0008091D8008F7D8093D8008091E000826051
:104CB0008093E0008091E00081FDFCCF0895CF92C9
:104CC000DF92EF92FF920F931F93CF93DF93EC014C
:104CD0008B016A010E94C227811133C0C114D10423
:104CE00039F0F60180819181081B190BC80FD91F7B
:104CF000E12CF12C0115110519F18091E80085FDD9
:104D000016C08091E8008E778093E800C114D1042A
:104D100049F0F60180819181E80EF91EF182E0826E
:104D200085E00FC00E94C227882321F30AC0899121
:104D30008093F10001501109FFEFEF1AFF0ADACF5B
:104D400080E0DF91CF911F910F91FF90EF90DF9066
:104D5000CF90089520917E0230917F022617370769
:104D600048F06115710539F42091E8002E77209301
:104D7000E80001C0B90140E061157105A9F1209179
:104D80007702222309F443C0253009F442C0209160
:104D9000E80023FD40C02091E80022FD32C02091B0
:104DA000E80020FFE9CF4091F3002091F20030E0CD
:104DB000342BFC01CF016115710559F02830310504
:104DC00040F481918093F100615071092F5F3F4F52
:104DD000F1CF41E02830310509F040E02091E800B2
:104DE0002E772093E800C8CF4111C9CF0AC0809127
:104DF0007702882361F0853061F08091E80083FDBF
:104E00000AC08091E80082FFF2CF80E0089582E03E
:104E1000089583E0089581E0089520917E02309105
:104E20007F022617370748F06115710539F4209184
:104E3000E8002E772093E80001C0B901FC0120E0D2
:104E40006115710591F180917702882309F440C0C2
:104E5000853009F43FC08091E80083FD3DC080911A
:104E6000E80082FD2FC08091E80080FFE9CF20910B
:104E7000F3008091F20090E0922B6115710559F0DA
:104E80008830910540F424912093F10031966150CF
:104E900071090196F2CF21E0089709F020E0809196
:104EA000E8008E778093E800CBCF2111CCCF0AC0E9
:104EB00080917702882361F0853061F08091E8006D
:104EC00083FD0AC08091E80082FFF2CF80E0089560
:104ED00082E0089583E0089581E00895982F973047
:104EE00058F59093E900981739F07091EC002091F3
:104EF000ED005091F00003C0242F762F50E021FFE9
:104F000019C03091EB003E7F3093EB003091ED0003
:104F10003D7F3093ED003091EB0031603093EB003A
:104F20007093EC002093ED005093F0002091EE0080
:104F300027FF07C09F5FD3CF8F708093E90081E088
:104F4000089580E008958091780287FF11C08091D4
:104F5000E80082FD05C0809177028111F8CF11C071
:104F60008091E8008B770BC080917702882349F00D
:104F70008091E80080FFF8CF8091E8008E778093E1
:104F8000E80008952091E4003091E50095E6409115
:104F9000EC00842F817040FF22C08091E80080FDEA
:104FA0001CC080917702882391F0853091F0809128
:104FB000EB0085FD10C04091E4005091E5004217E0
:104FC000530729F39A01915011F784E0089582E084
:104FD000089583E0089581E0089580E00895409168
:104FE000E80042FFDECF08950E9462280E946A28EE
:104FF000E0EEF0E0808181608083E8EDF0E0808188
:105000008F77808319BCA7EDB0E08C918E7F8C9355
:1050100080818F7E80831092760208950F931F9374
:10502000CF93DF930E9462280E946A28C8EDD0E0E7
:1050300088818F77888388818068888388818F7D45
:10504000888319BC10927702109273021092750235
:105050001092740200EE10E0F80180818B7F808353
:1050600088818160888342E060E080E00E946E2752
:10507000E1EEF0E080818E7F8083E2EEF0E08081DF
:1050800081608083808188608083F80180818E7F49
:105090008083888180618883DF91CF911F910F91F8
:1050A0000895E8EDF0E080818F7E8083E7EDF0E009
:1050B00080818160808384E082BF81E0809376027A
:1050C0000C940E28E8EDF0E080818E7F80831092B2
:1050D000E20008951092DA001092E10008951F9204
:1050E0000F920FB60F9211242F933F934F935F931C
:1050F0006F937F938F939F93AF93BF93EF93FF93A0
:105100008091E10082FF0BC08091E20082FF07C026
:105110008091E1008B7F8093E1000E94DF2A8091E3
:10512000DA0080FF1FC08091D80080FF1BC08091F3
:10513000DA008E7F8093DA008091D90080FF0DC065
:1051400080E189BD82E189BD09B400FEFDCF81E027
:10515000809377020E94B92405C019BC109277028F
:105160000E94C7248091E10080FF19C08091E20075
:1051700080FF15C08091E2008E7F8093E2008091D5
:10518000E20080618093E2008091D8008062809389
:10519000D80019BC85E0809377020E94CB248091CF
:1051A000E10084FF30C08091E20084FF2CC080E1E8
:1051B00089BD82E189BD09B400FEFDCF8091D80090
:1051C0008F7D8093D8008091E1008F7E8093E100F5
:1051D0008091E2008F7E8093E2008091E200816006
:1051E0008093E20080917302882311F084E007C06D
:1051F0008091E30087FD02C081E001C083E08093DD
:1052000077020E94CC248091E10083FF29C0809125
:10521000E20083FF25C08091E100877F8093E10059
:1052200082E080937702109273028091E1008E7F7A
:105230008093E1008091E2008E7F8093E200809174
:10524000E20080618093E20042E060E080E00E9442
:105250006E278091F00088608093F0000E94CA243D
:10526000FF91EF91BF91AF919F918F917F916F913E
:105270005F914F913F912F910F900FBE0F901F9014
:1052800018951F920F920FB60F9211242F933F93F0
:105290004F935F936F937F938F939F93AF93BF933E
:1052A000CF93DF93EF93FF93C091E900CF7080918C
:1052B000EC00D82FD17080FDD0E81092E9008091E9
:1052C000F000877F8093F00078940E9485291092E7
:1052D000E9008091F00088608093F000CD2BCF70C2
:1052E000C093E900FF91EF91DF91CF91BF91AF9112
:1052F0009F918F917F916F915F914F913F912F91EE
:105300000F900FBE0F901F9018951F93CF93DF93B0
:10531000CDB7DEB7AA970FB6F894DEBF0FBECDBFEC
:10532000E8E7F2E088E08E0F9091F10091938E1300
:10533000FBCF0E94D8248091E80083FF28C1809190
:10534000780290917902492F50E04A30510508F0D7
:105350001EC1FA01E556FF4F0C946C2E803821F0E7
:10536000823809F014C108C08091740290917502CE
:10537000992389F082600FC080917C028F70873002
:1053800008F005C18093E9008091EB0085FB882738
:1053900080F91092E9009091E800977F9093E800DF
:1053A0008093F1001092F100D0C0282F2D7F09F0DA
:1053B000EEC0882319F0823061F0E9C080917A0252
:1053C000813009F0E4C0933009F080E080937502E9
:1053D0002EC080917A0281112AC080917C028F7048
:1053E0002FEF280F263008F0D2C08093E9002091DB
:1053F000EB0020FF1CC0933021F48091EB00806211
:1054000014C09091EB0090619093EB0021E030E0AC
:10541000A90102C0440F551F8A95E2F74093EA00A4
:105420001092EA008091EB0088608093EB0010926C
:10543000E9008091E800877F8093E8000E94A3271D
:10544000A6C08111A4C010917A021F778091E30059
:105450008078812B8093E3008091E800877F8093A0
:10546000E8000E94A3278091E80080FFFCCF809194
:10547000E30080688093E300111102C082E001C064
:1054800083E08093770283C08058823008F07FC029
:1054900080917A0290917B028C3D53E0950779F5DB
:1054A00083E08A838AE289834FB7F894DE011396FA
:1054B00020E03EE051E2E32FF0E050935700E4910A
:1054C00020FF03C0E295EF703F5FEF708E2F90E0FA
:1054D000EA3010F0C79601C0C0968D939D932F5F60
:1054E000243149F74FBF8091E800877F8093E8001F
:1054F0006AE270E0CE0101960E94AA2615C0609172
:105500007C0270917D02AE014F5F5F4F0E94CE25FD
:10551000BC01892BE1F19091E800977F9093E8001E
:1055200089819A810E940D278091E8008B77809372
:10553000E8002DC0803859F58091E800877F80937E
:10554000E800809173028093F1008091E8008E77EB
:1055500073CF81111CC090917A029230C0F4809177
:10556000E800877F8093E800909373020E94A3274E
:1055700080917302811106C08091E30087FD02C013
:1055800081E001C084E0809377020E94CE24809164
:10559000E80083FF0AC08091E800877F8093E800DD
:1055A0008091EB0080628093EB00AA960FB6F8948E
:1055B000DEBF0FBECDBFDF91CF911F91089508953B
:1055C000CF93809177028823A1F0C091E900CF703A
:1055D0009091EC00892F817090FD80E8C82B10928B
:1055E000E9008091E80083FD0E948529CF70C09377
:1055F000E900CF9108955058BB27AA270E94132B8A
:105600000C94BE2C0E94B02C38F00E94B72C20F0D5
:1056100039F49F3F19F426F40C94862C0EF4E0958F
:10562000E7FB0C94802CE92F0E94CF2C58F3BA177B
:10563000620773078407950720F079F4A6F50C94A8
:10564000F12C0EF4E0950B2EBA2FA02D0B01B90111
:1056500090010C01CA01A0011124FF27591B99F0E8
:10566000593F50F4503E68F11A16F040A22F232FF4
:10567000342F4427585FF3CF469537952795A79544
:10568000F0405395C9F77EF41F16BA0B620B730BEB
:10569000840BBAF09150A1F0FF0FBB1F661F771F5C
:1056A000881FC2F70EC0BA0F621F731F841F48F411
:1056B000879577956795B795F7959E3F08F0B0CF9A
:1056C0009395880F08F09927EE0F97958795089581
:1056D0000E947C2B0C94BE2C0E94B72C58F00E9488
:1056E000B02C40F029F45F3F29F00C94802C51112C
:1056F0000C94F22C0C94862C0E94CF2C68F39923E6
:10570000B1F3552391F3951B550BBB27AA276217BD
:105710007307840738F09F5F5F4F220F331F441FCA
:10572000AA1FA9F335D00E2E3AF0E0E832D09150FE
:105730005040E695001CCAF72BD0FE2F29D0660FEB
:10574000771F881FBB1F261737074807AB07B0E82E
:1057500009F0BB0B802DBF01FF2793585F4F3AF034
:105760009E3F510578F00C94802C0C94F22C5F3FF6
:10577000E4F3983ED4F3869577956795B795F795BA
:105780009F5FC9F7880F911D9695879597F90895A2
:10579000E1E0660F771F881FBB1F6217730784073E
:1057A000BA0720F0621B730B840BBA0BEE1F88F74D
:1057B000E095089529F416F00C94802C0C94F12CAB
:1057C0000C94862C0E94D72CA8F39638A0F707F8E3
:1057D0000F92E8942BE33AEA48EB5FE70E94842DAE
:1057E0000F920F920F924DB75EB70F920E943A2D13
:1057F000EAE4F1E00E94892C4F915F91EF91FF91D3
:10580000E595EE1FFF1F49F0FE57E0684427EE0FB5
:10581000441FFA95E1F74195550B0E94042D0F9016
:1058200007FE0C94F82C08950E94D72C88F09F57FF
:1058300098F0B92F9927B751B0F0E1F0660F771FB4
:10584000881F991F1AF0BA95C9F714C0B13091F0AA
:105850000E94F12CB1E008950C94F12C672F782F61
:105860008827B85F39F0B93FCCF38695779567956F
:10587000B395D9F73EF490958095709561957F4FDB
:105880008F4F9F4F0895E89409C097FB3EF4909581
:105890008095709561957F4F8F4F9F4F9923A9F009
:1058A000F92F96E9BB279395F69587957795679598
:1058B000B795F111F8CFFAF4BB0F11F460FF1BC0DC
:1058C0006F5F7F4F8F4F9F4F16C0882311F096E96F
:1058D00011C0772321F09EE8872F762F05C066231D
:1058E00071F096E8862F70E060E02AF09A95660FD6
:1058F000771F881FDAF7880F9695879597F908958F
:1059000097F99F6780E870E060E008959FEF80EC72
:105910000895DF93CF931F930F93FF92EF92DF923F
:105920007B018C01689406C0DA2EEF010E94812D64
:10593000FE01E894A5912591359145915591A6F3E5
:10594000EF010E94132BFE019701A801DA9469F779
:10595000DF90EF90FF900F911F91CF91DF9108950D
:1059600000240A941616170618060906089500243E
:105970000A9412161306140605060895092E0394B8
:10598000000C11F4882352F0BB0F40F4BF2B11F42C
:1059900060FF04C06F5F7F4F8F4F9F4F089557FD8B
:1059A0009058440F551F59F05F3F71F04795880F8D
:1059B00097FB991F61F09F3F79F087950895121624
:1059C00013061406551FF2CF4695F1DF08C01616D0
:1059D00017061806991FF1CF869571056105089481
:1059E0000895E894BB2766277727CB0197F9089598
:1059F0009B01AC0160E070E080E89FE30C94682BB1
:105A00000C94802C0C94E32D0E94D72CD8F399236E
:105A1000C9F3940F511DA3F39150504094F059F0E5
:105A2000882332F0660F771F881F91505040C1F7CE
:105A30009E3F51052CF7880F911D9695879597F9F4
:105A400008955F3FACF0983E9CF0BB278695779514
:105A50006795B79508F4B1609395C1F7BB0F58F7F8
:105A600011F460FFE8CF6F5F7F4F8F4F9F4FE3CF01
:105A70000C94F22CFA01DC01AA0FBB1F9B01AC01B4
:105A8000BF5728F4222733274427507820C0B75126
:105A900090F4AB2F0024469537952795011CA395CC
:105AA000D2F3002071F0220F331F441FB395DAF3B5
:105AB0000ED00C94FB2A61307105A0E88A07B94624
:105AC00030F49B01AC0166277727882790783096C1
:105AD00021F0208331834283538308950E94812DD6
